:020000040800F2
:1000000080090020010100083D160008C70C000807
:10001000E1130008510A0008B9360008000000008A
:10002000000000000000000000000000252700087C
:10003000050B0008000000000D26000845280008F8
:100040001B0100081B0100081B0100081B01000820
:100050001B0100081B0100081B0100081B01000810
:100060001B0100081B0100081B0100081B01000800
:100070001B0100081B0100081B0100081B010008F0
:100080001B0100081B0100081B0100081B010008E0
:100090001B0100081B0100081B0100081B010008D0
:1000A0001B010008E92B00081B0100081B010008C8
:1000B000092C00081B010008212C00081B01000866
:1000C0001B0100081B0100081B0100081B010008A0
:1000D0001B010008093400081B0100081B0100086F
:1000E0001B0100081B0100081B010008DFF80CD0F1
:1000F00000F09CFC004800473955000880090020AA
:100100000648804706480047FEE7FEE7FEE7FEE7B1
:10011000FEE7FEE7FEE7FEE7FEE7FEE74929000807
:10012000ED000008202A04DB203A21FA02F0002129
:10013000704721FA02F3D040C2F1200291400843F7
:1001400019467047202A06DBCB17203A41FA02F005
:1001500043EAE07306E041FA02F3D040C2F1200224
:100160009140084319467047D2B201E000F8012BD4
:10017000491EFBD270470022F6E710B513460A4627
:1001800004461946FFF7F0FF204610BD30B504467F
:100190000020034600E05B1C934203D2E05CCD5C90
:1001A000401BF8D030BDF0B480EA0102D40F420009
:1001B000B2EB410F02D20246084611464A0042D035
:1001C000C30DDDB2C1F3C752AD1A202D35DAC1F32C
:1001D000160141F4000204B15242C5F1200602FAB0
:1001E00006F12A411044B3EBD05F23D0C4B1012DF6
:1001F000A0EBC35009DCF0BC4FF0004202EAC3524E
:10020000DBB200F5000000F008BB400000F1807098
:1002100000EBC350A0F1807040EAD170490009E0C2
:10022000490841EAC071A0EBC35000F50000400846
:1002300000EBC350F0BC00F0E7BA6142012202EBD0
:100240004101001BF6E7F0BC704781F00041AAE7CE
:1002500080F00040A7E780EA010210B502F00043F9
:10026000400022D04A001FD0010E01EB1261C0F302
:100270005600C2F3560240F4000042F40002A0FB14
:10028000022000047F39140400D0401C50EA1240C0
:1002900001D44000491EC2B20C0604EBD010401C31
:1002A0004008802A02D003E0002010BD20F00100A9
:1002B000002900DA0020184310BD30B480EA0102A2
:1002C00002F0004530F0004221F0004013D090B120
:1002D000C30DD40DC2F31601C0F31600E41A41F4A5
:1002E000000140F400027D34914201D3641C00E01F
:1002F0004900002C02DA30BC002070474FF40000A7
:100300000023914201D3891A034340084FEA410177
:10031000F7D151B1914202D14FF0004105E002D234
:100320004FF0010101E06FF0010103EBC4502844DC
:1003300030BC00F069BA2DE9FE4F804681EA030027
:10034000C00F0C46009021F0004123F00045B8EBAF
:100350000200A94105D24046214690461C460B4664
:10036000024623F00040104347D0270DC7F30A0090
:10037000C3F30A510290401A019040286BDAC3F38C
:10038000130040F4801B0098924620B10023D2EB6A
:10039000030A63EB0B0B01985946C0F1400250462B
:1003A00000F023FA06460D4650465946019AFFF7DB
:1003B000C9FE10EB08006141002487EA115284EA6B
:1003C000E7731A4340D0009A62B3019A012A4FEAB8
:1003D000075215DC001B61EB02014FF0004202EAFC
:1003E0000752CDE90042001C41F5801132462B46F0
:1003F00000F04EFA03B0BDE8F08F40462146F9E721
:10040000001B61EB0201001C41F5801300185B41E9
:100410002018A2F5001747EB030140EAD570B61982
:100420006D4111E06D084FEA360645EAC0754FEAA6
:100430000752001B61EB0201001C41F580114908C5
:100440004FEA30000019514132462B4603B0BDE857
:10045000F04F00F010BA0098012240000023D0EBCA
:10046000020263EBE073009821464FEAE074B8EBB8
:10047000000061EB0401E9E783F000435BE781F0F2
:10048000004158E72DE9FE4F81EA030404F00044DF
:1004900021F0004100944FF0000B23F0004350EA9C
:1004A00001045ED052EA03045BD0C3F30A54C1F3E3
:1004B0000A552C44A4F2F3340194A0FB0254C1F376
:1004C000130141F48011C3F3130343F4801301FBC0
:1004D000024400FB034E840A970A44EA815447EA27
:1004E0008357A4FB076802958D0A05FB07854FEA31
:1004F000932C04FB0C542705029D4FEA065847EA4B
:100500001637B5EB08056EEB070C870E920E47EA1F
:10051000811742EA8312A7FB0201B6EB0B0164EBE1
:1005200000042B0D43EA0C335E1844EB1C50DA46F2
:100530005146E7FB0201C5F313044FEA0B3343EACC
:1005400014534FEA0432019C43EA0603A4F10C045D
:100550000294009CCDE900B400F09AF903B0BDE824
:10056000F08F00200146F9E72DE9F04D81EA030400
:1005700004F0004B21F0004514464FF0000A23F030
:10058000004150EA050220D054EA01021DD0C5F313
:100590000A570246C5F31303C1F31300C1F30A5609
:1005A00040F4801543F48013A7EB0608101BD646D1
:1005B00008F2FD3873EB050002D308F1010801E0F1
:1005C00092185B41B8F1000F03DA00200146BDE844
:1005D000F08D00204FF48011064684460EE0171B74
:1005E00073EB050705D3121B63EB050306434CEAC7
:1005F000010C49084FEA300092185B4150EA0107AC
:10060000EDD152EA030012D082EA040083EA050128
:10061000084305D0101BAB4106D20122002306E09F
:1006200000224FF0004302E06FF0010253101AEB7A
:1006300006004CEB085110EB0A0041EB0B01BDE842
:10064000F04D00F018B9C10F80EAE0700844CA0705
:100650009623002100F0E1B896230022114600F015
:10066000DCB80EB5C10F80EAE0700844CA0700216B
:1006700040F233438DE80E000A460B4600F008F9BD
:1006800003B000BD20F00040C10DC0F3160040F4DF
:1006900000007F2901DA00207047962903DCC1F1B0
:1006A0009601C840704796398840704700F0004274
:1006B00030F000400AD0C10D01F56071C0F31600A2
:1006C00042EA0151C2084007114370470020014629
:1006D0007047000030B5002904DB4FF00044404271
:1006E00064EB0101002B04DB4FF00044524264EB49
:1006F0000303994208BF904230BD000001F000435F
:1007000030B421F0004150EA010206D00A0DA2F5F2
:100710006072C1F31301002A02DC30BC0020704774
:10072000440F44EAC104C100E01830BC00EBC250E1
:1007300000F06AB8002801DBC0F10040002901DBAD
:10074000C1F1004181427047002801DBC0F1004047
:10075000002901DBC1F100418842704730B50B46EA
:10076000014600202022012409E021FA02F59D42E1
:1007700005D303FA02F5491B04FA02F52844151EB5
:10078000A2F10102F1DC30BD2DE9F05F0546002049
:1007900092469B4688460646814640241BE02846F2
:1007A000414647462246FFF7BDFC53465A46C01A0B
:1007B000914110D311461846224600F016F82D1A22
:1007C00067EB01084F4622460120002100F00DF89A
:1007D00017EB00094E41201EA4F10104DFDC48465E
:1007E00031462A464346BDE8F09F202A04DB203AE2
:1007F00000FA02F1002070479140C2F1200320FA74
:1008000003F31943904070470029A8BF7047401C6C
:10081000490008BF20F00100704710B4B0FA80FC16
:1008200000FA0CF050EA010404BF10BC704749B153
:10083000CCF1200421FA04F411FA0CF118BF0121C3
:1008400021430843A3EB0C01CB1D4FEA00614FEAA3
:10085000102042BF002010BC704700EBC350104472
:100860000029A4BF10BC7047401C490008BF20F0FD
:10087000010010BC704710B5002B08DA401C41F194
:10088000000192185B411A4301D120F0010010BD14
:100890002DE9F04D92469B4611B1B1FA81F202E08A
:1008A000B0FA80F220329046FFF79FFF04460F46D1
:1008B00040EA0A0041EA0B0153465A46084313D066
:1008C000114653EA010019D0C8F140025046FFF723
:1008D00029FC05460E46504659464246FFF785FF1D
:1008E000084305D0012004E020463946BDE8F08DDC
:1008F0000020054346EAE0762C4337430A98630517
:10090000E40AA0EB08000022FD0A44EA47540A303A
:1009100002D500200146E9E7010510196941DDE92A
:10092000084500196941BDE8F04DA4E770B521F014
:10093000004303430CD0C1F30A550024D5EB040552
:1009400064EB0403D617AD1AB34102DB0020014665
:1009500070BD201841EB025170BD2DE9F04D002310
:100960001A461B1A8A4103DB00200146BDE8F08DC0
:10097000C1F30A52C1F3130141F480154FF0000B8B
:10098000D10702D100186D41521E0027044640F2E3
:10099000FF11384601EB620A3E46804602460020BF
:1009A0004FF48011FFF7BEFBC2197141BB1846EB33
:1009B0000100B4EB030C75EB000C04D3E41A65EBF7
:1009C000000517460E46241908F101006D418046C6
:1009D0003428E3DDF91946EB0600091BA84103D2D0
:1009E0004FF0FF32134601E0002213461BEB0700D5
:1009F00046EB0A51BDE8F04DFFF73DBFC1F30A5287
:100A0000C1F3130140F2FF3341F480119A4202DA3C
:100A100000200146704740F233439A42A2F233422B
:100A200002DC5242FFF77EBBFFF7DFBE064C074DEC
:100A300006E0E06840F0010394E8070098471034AE
:100A4000AC42F6D3FFF756FB188200083882000844
:100A500000BFFEE710B504460A2C02D101F030FCBD
:100A60003EE0202C02D101F06FFC39E0212C05DBA7
:100A70002F2C03DC204601F0AFF831E0302C05DBF1
:100A8000392C03DC204601F01BF829E03A2C05DB69
:100A9000402C03DC204601F02BF921E0412C05DB42
:100AA0005A2C03DC204600F0F3FE19E05B2C05DB3A
:100AB0005D2C03DC204601F0A7F911E0612C05DB79
:100AC0007A2C03DC204600F06FFF09E07B2C05DB6D
:100AD0007E2C03DC204601F023FA01E001F09AFBB2
:100AE00010BD000010B504462146054802F077FD10
:100AF00000BF8021024802F0A5FC0028F9D010BDFB
:100B00000038014070472DE9F041024600250026DB
:100B1000002000230024002791F803C00CF00F05EB
:100B200091F803C00CF0100CBCF1000F03D091F849
:100B300002C04CEA050591F800C0BCF1000F31D0AD
:100B4000146800202BE04FF0010C0CFA00F3B1F810
:100B500000C00CEA03069E4220D183004FF00F0C28
:100B60000CFA03F7BC4305FA03FC4CEA040491F8C1
:100B700003C0BCF1280F06D14FF0010C0CFA00FCA9
:100B8000C2F814C00AE091F803C0BCF1480F05D1C7
:100B90004FF0010C0CFA00FCC2F810C0401C0828F1
:100BA000D1D31460B1F800C0BCF1FF0F34DD54683C
:100BB00000202EE000F1080C4FF0010808FA0CF3B9
:100BC000B1F800C00CEA03069E4221D183004FF029
:100BD0000F0C0CFA03F7BC4305FA03FC4CEA0404BF
:100BE00091F803C0BCF1280F05D100F1080C08FAF8
:100BF0000CF8C2F8148091F803C0BCF1480F07D17B
:100C000000F1080C4FF0010808FA0CF8C2F8108047
:100C1000401C0828CED35460BDE8F081F0B50A46E8
:100C2000002300240021002500F00046B6F1004F0B
:100C300002D11D4EF16901E01B4E7168C0F30345FE
:100C400083B200F44016B6F5401F08D121F0706160
:100C5000154E766826F07066134F7E6012E000F441
:100C60008016B6F5801F06D1032606FA05F4A143C7
:100C700041F0706106E0460D360103FA06F6B14315
:100C800041F0706122B1460D360103FA06F6314398
:100C900000F00046B6F1004F02D1034EF16101E0D1
:100CA000014E7160F0BD00000000014002460020CE
:100CB00093680B400BB1012000E0002070474161B8
:100CC00070470161704700BFFEE7000070B54FF448
:100CD00000511348FFF7F5FF124800F05BFA114985
:100CE00008680021FFF726FD03D2002000F0F2FB88
:100CF00002E0012000F0EEFB01F054FC0A4801681C
:100D00000A480068FFF74FFA044607480168074899
:100D10000068FFF79AFA0546214600F0E1FB70BD36
:100D2000001001402801002088000020440000201D
:100D300010B5012000F07EF94FF400710948FFF76B
:100D4000BEFF022003F078FD4FF480710548FFF7E5
:100D5000B8FF4FF480710348FFF7B1FF022003F0A2
:100D60006BFD10BD000C014010B5012000F062F9D0
:100D70004FF400710948FFF7A4FF022003F05CFD67
:100D80004FF480710548FFF79CFF4FF480710348D2
:100D9000FFF795FF022003F04FFD10BD000C01404E
:100DA00070B50024002000F045F9022003F044FD56
:100DB000002516E04FF480710C48FFF782FF4FF4D6
:100DC00000710A48FFF772FF40EA4400C4B24FF4D2
:100DD00080710648FFF773FF022003F02DFD681CA9
:100DE000C5B2082DE6DB204670BD0000000C0140B6
:100DF00070B50446012000F01DF900251DE0E00952
:100E000028B14FF400710E48FFF75BFF04E04FF488
:100E100000710B48FFF753FF6006040E4FF480711A
:100E20000748FFF74EFF022003F006FD4FF48071E4
:100E30000348FFF744FF681CC5B2082DDFDB70BD17
:100E4000000C014010B5044600F042F818B900F05B
:100E500023F8204610BD0020FCE7000010B501205B
:100E600000F0E8F84FF400710A48FFF72AFF4FF44A
:100E700080710848FFF725FF022003F0DDFC4FF4E6
:100E800000710448FFF71BFF4FF480710148FFF722
:100E900016FF10BD000C014010B5012000F0CAF88B
:100EA0004FF400710948FFF70AFF4FF480710748BB
:100EB000FFF707FF022003F0BFFC4FF40071034867
:100EC000FFF7FFFE022003F0B7FC10BD000C01404D
:100ED00010B50024002000F0ADF84FF480710F48E9
:100EE000FFF7EFFE022003F0A7FC05E0641CB4F559
:100EF000FA6F01D1002010BD4FF400710748FFF7D1
:100F0000D5FE0128F2D04FF480710448FFF7D7FED8
:100F1000022003F091FC0120EDE70000000C0140ED
:100F20002DE9F04180460E46154637460024FFF76E
:100F300095FFD020FFF75CFF1020FFF783FF0446EA
:100F400014B12046BDE8F0814046FFF751FF202054
:100F5000FFF778FF04460CB12046F3E7FFF77EFF6A
:100F6000D120FFF745FF3020FFF76CFF04460CB19E
:100F70002046E7E709E0FFF713FF05F8010B17B973
:100F8000FFF7F2FE01E0FFF7D3FE3800A7F1010101
:100F9000CFB2F0D1FFF780FF0020D3E770B506464F
:100FA0000D460024FFF75AFFD020FFF721FF102045
:100FB000FFF748FF04460CB1204670BD3046FFF7EE
:100FC00017FF2020FFF73EFF04460CB12046F4E750
:100FD000FFF744FFD120FFF70BFF3020FFF732FF70
:100FE00004460CB12046E8E7FFF7DAFE2870FFF769
:100FF000BBFEFFF751FF0020DFE7000008B501212D
:10100000082001F015FB4FF48070ADF800001420AB
:101010008DF8030003208DF8020069460448FFF7AD
:1010200072FD4FF480710248FFF74BFE08BD0000CF
:10103000000C014038B504460121082001F0F8FAFF
:1010400074B94FF40070ADF8000048208DF803002B
:1010500001208DF8020069460B48FFF754FD12E0AD
:101060004FF40070ADF8000014208DF8030001204B
:101070008DF8020069460448FFF745FD4FF4007102
:101080000148FFF71EFE38BD000C014010B5FFF708
:10109000B5FF0120FFF7CEFF192003F079FB10BD4B
:1010A0002DE9F04107460E461546B0460024FFF7ED
:1010B000D5FED020FFF79CFE1020FFF7C3FE0446AC
:1010C00014B12046BDE8F0813846FFF791FE20209C
:1010D000FFF7B8FE04460CB12046F3E70AE015F826
:1010E000010BFFF785FE3020FFF7ACFE04460CB184
:1010F0002046E7E75FEA0800A8F1010101F0FF08D8
:10110000EDD1FFF7C9FE0020DCE770B506460D46BD
:101110000024FFF7A3FED020FFF76AFE1020FFF7A0
:1011200091FE04460CB1204670BD3046FFF760FECC
:101130002020FFF787FE04460CB12046F4E728463E
:10114000FFF756FE3020FFF77DFE04460CB1204627
:10115000EAE7FFF7A1FE0020E6E7000008B501215D
:10116000102001F065FA4FF40050ADF80000102097
:101170008DF8030003208DF8020069460448FFF74C
:10118000C2FC4FF400510248FFF79BFD08BD000070
:101190000010014010B5044604F108022146201D4C
:1011A00003F0C8FC10BD000038B50024684604F008
:1011B0007BFA00283AD1782004F07EFFC4B20CB14B
:1011C000012038BD782004F011FAC4B20CB102201D
:1011D000F7E70D2004F022FFC4B20CB10320F0E7C2
:1011E00003F018FEC4B20CB10420EAE7104804F082
:1011F00067F9054603F038FFC4B20CB10520E0E7FB
:1012000040F2731003F03EFBC4B20CB10620D8E7E5
:101210000D2003F0F1FEC4B20CB10720D1E701208C
:1012200004F0F8FDC4B20CB10920CAE70020C8E7F9
:10123000B400002070B5044621467520FFF7AEFECD
:10124000C5B20448006820B11DB1294602A002F0D1
:1012500035FA70BD6400002043616E6E6F742067C4
:1012600065742053656C66204164647265737321F4
:10127000204552524F522066696E64732061743A61
:101280002025640A000000003EB5002043490860A4
:1012900001257EE04FF400514148FFF710FD00208A
:1012A00004E000210DF80010411CC8B20B28F8DB47
:1012B00080216B20FFF729FFC0B28DF80000C82005
:1012C00003F066FA80216B20FFF71FFFC0B28DF894
:1012D0000000C82003F05CFA05216B20FFF715FF22
:1012E000C0B28DF8010000216C20FFF70EFFC0B2E4
:1012F0008DF802000F211920FFF707FFC0B28DF80B
:10130000030001211A20FFF700FFC0B28DF804008E
:1013100018211B20FFF7F9FEC0B28DF8050000214F
:101320001C20FFF7F2FEC0B28DF80600002123203A
:10133000FFF7EBFEC0B28DF8070009212420FFF76C
:10134000E4FEC0B28DF8080000213820FFF7DDFE72
:10135000C0B28DF8090000216A20FFF7D6FEC0B2A6
:101360008DF80A0000240DE01DF8040038B10125B5
:101370001DF8041022460BA002F0A0F900E00025A1
:10138000601CC4B20B2CEFDB4FF400510448FFF794
:1013900098FC012D3FF47EAF3EBD000048000020C8
:1013A000001001404D5055206D6967687420696ECA
:1013B000697469616C697A65642077726F6E672100
:1013C000204552524F5220436F64653A2025642CC9
:1013D0002066696E64732061742025640A00000031
:1013E00000BFFEE700B5012000F074F800BD00006A
:1013F0002DE9F041044614B92046BDE8F08142F2DF
:101400001070844200DD04462046FFF725F90746A8
:101410000849FEF752FF054629460748FEF71BFF1D
:101420000746FFF72FF986B241F27070304486B25A
:101430003046E2E700401C46008F68472DE9F04146
:10144000044614B92046BDE8F08142F2107084428F
:1014500000DD04462046FFF7FFF807460849FEF77F
:101460002CFF054629460748FEF7F5FE0746FFF71D
:1014700009F986B241F27070304486B23046E2E734
:1014800000401C46008F684770B505460C46022D8B
:1014900002D0042D16D10BE04FF0804001F00DFC7E
:1014A00006B200214FF0804001F0E8FD26600CE01C
:1014B000074801F002FC06B20021054801F0DEFDFC
:1014C000266002E00020206000BF00BF70BD000069
:1014D00000080040014908707047000031000020FA
:1014E0002DE9F04705460C464F4908684F49FFF77C
:1014F00021F975D24C4908684D49FFF725F96FD895
:1015000000212846FFF720F910D20121494801F0B7
:10151000ACFD2846FFF7B6F887B23846FFF768FFFC
:1015200006463146434801F0A2FD29E00021284645
:10153000FFF700F908D101213E4801F096FD012195
:101540003C4801F094FD1BE02846FFF79BF81FFA8A
:1015500080FA5046FFF780F881463749FEF77BFE58
:101560008046FFF78FF887B23846FFF741FF0646FF
:101570003146304801F079FD01212E4801F077FD18
:1015800000212046FFF7D6F81CD20121294801F09E
:1015900070FD2046FFF776F81FFA80FA5046FFF7F5
:1015A0005BF881462449FEF756FE8046FFF76AF84D
:1015B00087B23846FFF742FF064631461D4801F024
:1015C0005AFD2FE000212846FFF7B4F809D1012188
:1015D000184801F04EFD0121164801F04CFD21E0B4
:1015E00010E02046FFF74EF887B23846FFF726FF97
:1015F000064631460F4801F03CFD01210D4801F03F
:101600003AFD0FE005210B4801F02FFD05210948A7
:1016100001F02DFD0521074801F02BFD05210548AE
:1016200001F029FDBDE8F0872801002000003442C8
:10163000000034C200040040000080BF704700007A
:1016400070B5002100230F22C47804B3154C246820
:1016500004F4E064C4F5E064210AC1F10403CA4063
:10166000447804FA03F184781440214309010E4CB4
:101670000678A155047804F01F050124AC400578D4
:101680006D11AD0005F1E025C5F8004109E00478D1
:1016900004F01F050124AC40044D0678761145F88E
:1016A000264070BD0CED00E000E400E080E100E0C9
:1016B00002490143024A1160704700000000FA0528
:1016C0000CED00E0024A0A400243024B1A607047E8
:1016D00080FFFF1F08ED00E010B504462CB14FF469
:1016E00000410548FFF7EDFA04E04FF400410248DD
:1016F000FFF7E5FA10BD00000008014010B500F04A
:101700007DF800F093F810BDC0F180010E4A127808
:10171000914213DCC0F140010C4A1278914204DC82
:101720000021094A1170094A11700021064A1170FE
:10173000064909780144054A117004E00249097814
:101740000144014A117070477000002071000020B0
:1017500010B5044624B110210448FFF7B2FA03E0A3
:1017600010210248FFF7ABFA10BD0000000C014049
:1017700010B58D2000F0ECFC102000F0E9FCAE204C
:1017800000F0E6FC10BD10B58D2000F0E1FC142047
:1017900000F0DEFCAF2000F0DBFC10BD08B501213D
:1017A0001348FFF73BFA0121042000F041FF10200D
:1017B0008DF8030003208DF802004FF41040ADF8BF
:1017C000000069460B48FFF79EF90121082000F050
:1017D0002FFF10208DF8030003208DF80200382021
:1017E000ADF8000069460448FFF78DF908BD000018
:1017F0000002300000080140000C014000B500F07C
:1018000083FD00220CE0002306E00020064901EBE6
:10181000C201C854581CC3B2082BF6DB501CC2B21C
:10182000802AF0DB00BD00003401002070B50024E8
:1018300018E004F1B001C8B200F08AFC022000F008
:1018400087FC102000F084FC002507E0074901EB2D
:10185000C501085D00F097FC681CC5B2802DF5DB62
:10186000601CC4B2082CE4DB70BD00003401002011
:1018700010B5FFF793FF0020FFF72EFF012000F0C7
:10188000DBFB0120FFF764FF00F0E8FB10BD000068
:101890002DE9F14F3F480068012802D0022873D19A
:1018A00038E04FF0000A2EE04FF0000B24E00098E3
:1018B0004138394901EBC00010F80A400025CBF14E
:1018C00007022646A84630464146FEF72BFC012378
:1018D0001840002148404940084309D02F4A127857
:1018E0005A44D1B22E4A12785244D0B200F066FC6B
:1018F0000BF1010000F0FF0BBBF1080FD7DB0AF181
:10190000010000F0FF0ABAF1080FCDDB0820FFF755
:10191000FBFE3BE04FF0000A2EE04FF0000B24E00E
:10192000009841381F4901EB401030F81A4000255B
:10193000CBF110022746A94638464946FEF7F2FB8E
:1019400001231840002148404940084309D0134A68
:1019500012785A44D1B2124A12785244D0B200F0EE
:101960002DFC0BF1010000F0FF0BBBF1100FD7DBDA
:101970000AF1010000F0FF0ABAF1100FCDDB0E20D2
:10198000FFF7C2FE02E0FFE700BF00BF00BFBDE8F7
:10199000F88F000074000020286B00087100002000
:1019A00070000020F86B00082DE9F14F3F480068F7
:1019B000012802D0022873D138E04FF0000A2EE04F
:1019C0004FF0000B24E000986138394901EBC0006A
:1019D00010F80A400025CBF107022646A8463046FB
:1019E0004146FEF79FFB0123184000214840494033
:1019F000084309D02F4A12785A44D1B22E4A12789D
:101A00005244D0B200F0DAFB0BF1010000F0FF0B02
:101A1000BBF1080FD7DB0AF1010000F0FF0ABAF1B1
:101A2000080FCDDB0620FFF76FFE3BE04FF0000A0A
:101A30002EE04FF0000B24E0009861381F4901EBC5
:101A4000401030F81A400025CBF110022746A94675
:101A500038464946FEF766FB0123184000214840FE
:101A60004940084309D0134A12785A44D1B2124A65
:101A700012785244D0B200F0A1FB0BF1010000F04B
:101A8000FF0BBBF1100FD7DB0AF1010000F0FF0ADA
:101A9000BAF1100FCDDB0A20FFF736FE02E0FFE7B8
:101AA00000BF00BF00BFBDE8F88F00007400002039
:101AB000287000087100002070000020F8700008F5
:101AC0002DE9F14F3F480068012802D0022873D168
:101AD00038E04FF0000A2EE04FF0000B24E00098B1
:101AE0003038394901EBC00010F80A400025CBF12D
:101AF00007022646A84630464146FEF713FB01235F
:101B00001840002148404940084309D02F4A127824
:101B10005A44D1B22E4A12785244D0B200F04EFB51
:101B20000BF1010000F0FF0BBBF1080FD7DB0AF14E
:101B3000010000F0FF0ABAF1080FCDDB0820FFF723
:101B4000E3FD3BE04FF0000A2EE04FF0000B24E0F5
:101B5000009830381F4901EB401030F81A4000253A
:101B6000CBF110022746A94638464946FEF7DAFA75
:101B700001231840002148404940084309D0134A36
:101B800012785A44D1B2124A12785244D0B200F0BC
:101B900015FB0BF1010000F0FF0BBBF1100FD7DBC1
:101BA0000AF1010000F0FF0ABAF1100FCDDB10209E
:101BB000FFF7AAFD02E0FFE700BF00BF00BFBDE8DE
:101BC000F88F000074000020806800087100002079
:101BD00070000020D06800082DE9F14F3F480068F0
:101BE000012802D0022873D138E04FF0000A2EE01D
:101BF0004FF0000B24E000982138394901EBC00078
:101C000010F80A400025CBF107022646A8463046C8
:101C10004146FEF787FA0123184000214840494019
:101C2000084309D02F4A12785A44D1B22E4A12786A
:101C30005244D0B200F0C2FA0BF1010000F0FF0BE9
:101C4000BBF1080FD7DB0AF1010000F0FF0ABAF17F
:101C5000080FCDDB0720FFF757FD3BE04FF0000AF0
:101C60002EE04FF0000B24E0009821381F4901EBD3
:101C7000401030F81A400025CBF110022746A94643
:101C800038464946FEF74EFA0123184000214840E5
:101C90004940084309D0134A12785A44D1B2124A33
:101CA00012785244D0B200F089FA0BF1010000F032
:101CB000FF0BBBF1100FD7DB0AF1010000F0FF0AA8
:101CC000BAF1100FCDDB1020FFF71EFD02E0FFE799
:101CD00000BF00BF00BFBDE8F88F00007400002007
:101CE000286600087100002070000020A06600082F
:101CF0002DE9F14F3F480068012802D0022873D136
:101D000038E04FF0000A2EE04FF0000B24E000987E
:101D10003A38394901EBC00010F80A400025CBF1F0
:101D200007022646A84630464146FEF7FBF9012346
:101D30001840002148404940084309D02F4A1278F2
:101D40005A44D1B22E4A12785244D0B200F036FA38
:101D50000BF1010000F0FF0BBBF1080FD7DB0AF11C
:101D6000010000F0FF0ABAF1080FCDDB0720FFF7F2
:101D7000CBFC3BE04FF0000A2EE04FF0000B24E0DC
:101D800000983A381F4901EB401030F81A400025FE
:101D9000CBF110022746A94638464946FEF7C2F95C
:101DA00001231840002148404940084309D0134A04
:101DB00012785A44D1B2124A12785244D0B200F08A
:101DC000FDF90BF1010000F0FF0BBBF1100FD7DBA9
:101DD0000AF1010000F0FF0ABAF1100FCDDB10206C
:101DE000FFF792FC02E0FFE700BF00BF00BFBDE8C5
:101DF000F88F000074000020106A000871000020B5
:101E000070000020486A00082DE9F14F3F48006843
:101E1000012802D0022873D138E04FF0000A2EE0EA
:101E20004FF0000B24E000985B38394901EBC0000B
:101E300010F80A400025CBF107022646A846304696
:101E40004146FEF76FF90123184000214840494000
:101E5000084309D02F4A12785A44D1B22E4A127838
:101E60005244D0B200F0AAF90BF1010000F0FF0BD0
:101E7000BBF1080FD7DB0AF1010000F0FF0ABAF14D
:101E8000080FCDDB0720FFF73FFC3BE04FF0000AD7
:101E90002EE04FF0000B24E000985B381F4901EB67
:101EA000401030F81A400025CBF110022746A94611
:101EB00038464946FEF736F90123184000214840CC
:101EC0004940084309D0134A12785A44D1B2124A01
:101ED00012785244D0B200F071F90BF1010000F019
:101EE000FF0BBBF1100FD7DB0AF1010000F0FF0A76
:101EF000BAF1100FCDDB1020FFF706FC02E0FFE780
:101F000000BF00BF00BFBDE8F88F000074000020D4
:101F1000386F00087100002070000020686F000812
:101F20002DE9F14F3F480068012802D0022873D103
:101F300038E04FF0000A2EE04FF0000B24E000984C
:101F40007B38394901EBC00010F80A400025CBF17D
:101F500007022646A84630464146FEF7E3F801232D
:101F60001840002148404940084309D02F4A1278C0
:101F70005A44D1B22E4A12785244D0B200F01EF91F
:101F80000BF1010000F0FF0BBBF1080FD7DB0AF1EA
:101F9000010000F0FF0ABAF1080FCDDB0720FFF7C0
:101FA000B3FB3BE04FF0000A2EE04FF0000B24E0C3
:101FB00000987B381F4901EB401030F81A4000258B
:101FC000CBF110022746A94638464946FEF7AAF843
:101FD00001231840002148404940084309D0134AD2
:101FE00012785A44D1B2124A12785244D0B200F058
:101FF000E5F80BF1010000F0FF0BBBF1100FD7DB90
:102000000AF1010000F0FF0ABAF1100FCDDB102039
:10201000FFF77AFB02E0FFE700BF00BF00BFBDE8AB
:10202000F88F000074000020387400087100002050
:10203000700000205874000810B504462CB14FF40D
:1020400080510548FEF73DFE04E04FF48051024800
:10205000FEF735FE10BD00000008014010B500205D
:10206000FFF7EAFF642002F093FB0120FFF7E4FF93
:10207000642002F08DFBFFF77BFB022000F068F884
:10208000102000F065F8402000F062F8B02000F069
:102090005FF8812000F05CF8CF2000F059F8A12013
:1020A00000F056F8C82000F053F8A72000F050F8D0
:1020B000A82000F04DF83F2000F04AF8D32000F0AF
:1020C00047F8002000F044F8D52000F041F88020C7
:1020D00000F03EF8D92000F03BF8222000F038F85C
:1020E000DA2000F035F8122000F032F8DB2000F0A2
:1020F0002FF8402000F02CF8A42000F029F8A620AA
:1021000000F026F8FFF73FFBFFF7F8FA10BD0000DC
:1021100010B5044624B108210448FEF7D2FD03E0BF
:1021200008210248FEF7CBFD10BD0000000C014065
:1021300010B5044624B120210448FEF7C2FD03E097
:1021400020210248FEF7BBFD10BD0000000C01403D
:1021500070B504460020FFF7FBFA00250DE00020D3
:10216000FFF7D6FF04F08000FFF7E2FF0120FFF742
:10217000CFFF6006040E681CC5B2082DEFDB0120FE
:10218000FFF7E6FA70BD70B504460120FFF7E0FAEC
:1021900000250DE00020FFF7BBFF04F08000FFF7F3
:1021A000C7FF0120FFF7B4FF6006040E681CC5B22C
:1021B000082DEFDB0120FFF7CBFA70BD70B50346A9
:1021C00000201EE0CC1701EB5474E410A1EBC40412
:1021D000844214D1CC1701EB5474E4100B4D05EB81
:1021E000C3052C5D0A4D2D5C2C430A46CD1701EB2F
:1021F0005575ED10054E06EBC306745503E0421C01
:10220000D0B20828DEDB00BF70BD00003401002022
:102210006800002030B527480068012802D0022855
:1022200043D120E0002518E0002412E0C4F10701AA
:10223000FF20084100F0010048B11F4A12782244F3
:10224000D1B21E4A12782A44D0B2FFF7B7FF601C01
:10225000C4B2082CEADB681CC5B2082DE4DB0820F8
:10226000FFF752FA23E0002519E0002413E0C4F13F
:1022700007014FF6FF70084100F0010048B10E4A17
:1022800012782244D1B20D4A12782A44D0B2FFF714
:1022900095FF601CC4B2082CE9DB681CC5B2082D90
:1022A000E3DB1020FFF730FA01E000BF00BF00BF02
:1022B00030BD00007400002071000020700000207C
:1022C0000E480068012802D0022812D108E0002040
:1022D0000B4908700B48007808300A4908700AE07A
:1022E0000020074908700748007810300549087039
:1022F00001E000BF00BF00BF704700007400002075
:10230000700000207100002000200249087002497E
:10231000087070477000002071000020012802D072
:10232000022808D103E00121064A116007E00221DA
:10233000044A116003E00121024A116000BF00BF9E
:1023400070470000740000200D480068012802D08A
:1023500002280CD105E00B480078801D094908705F
:102360000BE00848007808300649087005E0054889
:102370000078801D0349087000BF00BF704700004F
:102380007400002070000020002141608160C16065
:1023900001614161816170472DE9F04704460D46B6
:1023A00016461F46DDF820801A4928680968FEF79E
:1023B000C1F914D2184917480068FDF74CFF81464F
:1023C0002968FEF7B7F90AD21448FFF7DDFF144871
:1023D000FFF7DAFF0020C8F80000BDE8F0873946B3
:1023E0002868FDF732FF81460E4801684846FDF730
:1023F00032FF60600C4970690968FDF72CFFE060EE
:10240000E1686068FDF7CFFEA061A069C8F8000030
:1024100000BFE2E784000020000080BF34050020F8
:10242000500500208C000020900000202DE9FF5F67
:1024300004468B4616461D463449086834490968E7
:10244000FEF778F915D2334931480068FDF703FFEC
:1024500007462E4801683846FEF76CF909D22E4827
:10246000FFF792FF2D48FFF78FFF00202860BDE89F
:10247000FF9F6069FEF71AF907464FF06632284B56
:10248000FEF700F8CDE900013046FEF7EAF807460E
:102490004FF03332234BFDF7F5FF8146DDE9002392
:1024A000FDF749FFCDE90201FEF728F92061206917
:1024B00060612169A068FDF776FEA0601A49A068F6
:1024C000FEF742F901D21848A0601849A068FEF74B
:1024D00031F901D81548A060154916480068FDF784
:1024E000ECFE15490860A0680968FDF7B4FE0746D0
:1024F000104920690968FDF7AEFE80463946FDF7B0
:1025000052FEA061A069286000BFB0E7280100204A
:1025100084000020000080BF34050020500500200A
:102520006666E63F3333D33F00401C4600401CC67E
:1025300000004843940000209800002070B5054634
:102540000C461249086812490968FEF7F3F814D2DC
:1025500010490F480068FDF77EFE06460B480168EB
:102560003046FEF7E7F808D20B48FFF70DFF0B489F
:10257000FFF70AFF0020206070BD0948A9690068C4
:10258000FDF769FE206000BFF6E70000280100208B
:1025900084000020000080BF34050020500500208A
:1025A0009C0000203EB5002002900190002401AB69
:1025B0000C48026800210C48FFF738FF02A80023EE
:1025C0000A4A0B4900900B48FFF7E6FE0A49074804
:1025D000FFF7B4FFDDE90110FDF7E5FD044607480C
:1025E00004603EBD34000020500500200C01002096
:1025F000280100203405002088000020440000202D
:102600000149086070470000A0000E4270470000BA
:1026100029B1064AD2690243044BDA6104E0034A55
:10262000D2698243014BDA6170470000001002401A
:1026300029B1064A92690243044B9A6104E0034AB5
:1026400092698243014B9A6170470000001002407A
:1026500030B500210022002400232D4D6D6805F0C7
:102660000C0121B1042905D0082923D105E0294D09
:10267000056022E0274D05601FE0254D6D6805F4DB
:102680007012234D6D6805F48034022505EB9242EB
:102690001CB9214D554305600BE01D4D6D6805F4D7
:1026A00000351DB11C4D5543056002E0194D5543E1
:1026B000056002E0174D056000BF00BF144D6D6856
:1026C00005F0F0010909154D6B5C0568DD404560BA
:1026D0000F4D6D6805F4E061090A104D6B5C4568AB
:1026E000DD4085600A4D6D6805F46051C90A0B4DE7
:1026F0006B5C4568DD40C560054D6D6805F4404183
:10270000890B074D6B5CC568B5FBF3F5056130BD02
:102710000010024000127A0000093D001400002061
:102720002400002070472DE9F04107460C4615466D
:102730001E46324629462046FEF7F2FBBDE8F081F0
:102740002DE9F04107460C4615461E4632462946FD
:102750002046FEF7A5FCBDE8F08110B500F002F8B8
:1027600010BD00000CB500200190009033480068B7
:1027700040F480303149086000BF3048006800F400
:10278000003000900198401C0190009818B9019801
:10279000B0F5A06FF1D12948006800F4003010B105
:1027A0000120009001E0002000900098012843D112
:1027B0002348006840F0100021490860084600687E
:1027C00020F0070008600846006840F0020008603A
:1027D0001A484068194948600846406848600846F9
:1027E000406840F4806048600846406820F47C10EF
:1027F00048600846406840F4E810486008460068B1
:1028000040F08070086000BF0C48006800F0007065
:102810000028F9D00948406820F0030007494860C3
:102820000846406840F00200486000BF0348406826
:1028300000F00C000828F9D10CBD00000010024087
:102840000020024010B514480068401C124908607E
:1028500012480068401C1149086008460068322888
:1028600019D10F490220FEF70FFE0E490420FEF792
:102870000BFE0B4909680B4A1268881800EBD071EF
:102880004910094A11600020044908604FF40051C2
:102890000648FEF714FA10BDAC000020B00000207E
:1028A000380000203C0000203400002000100140CF
:1028B00030B5164800684FF47A72B0FBF2F1B1F10E
:1028C000807F01D301201DE021F07F40401E4FF0AA
:1028D000E022506150170F22002807DA13071D0E5F
:1028E0000B4B00F00F04241F1D5503E013071C0EB3
:1028F000084B1C5400BF00204FF0E02290610720DD
:102900001061002008B100BFFEE730BD00000020CC
:1029100018ED00E000E400E0012080F3138800BF20
:1029200000BF0748006800F4E06006490843001D46
:1029300003490860BFF3408F00BF00BFFEE70000FF
:102940000CED00E00000FA0510B51348006840F0F7
:1029500001001149086008464068104908400E49C6
:102960004860084600680E4908400B490860084660
:10297000006820F4802008600846406820F4FE00CB
:1029800048604FF41F008860FFF7E7FE4FF00060DB
:102990000449086010BD0000001002400000FFF86C
:1029A000FFFFF6FE08ED00E0F0B50C4615460022EC
:1029B0000021068C4FF6FE773E400684028B018C88
:1029C0004FF60C7632407E1C06EA03162E43324345
:1029D000104EB0420ED0104EB0420BD0B0F1804F2E
:1029E00008D00E4EB04205D00D4EB04202D00D4E72
:1029F000B04206D14FF6FD76314044F00106314336
:102A000005E04FF6F576314044F00106314302838C
:102A10000184F0BD002C014000340140000400405E
:102A200000080040000C0040F0B50C46154600229E
:102A300000210026078C4FF6EF7C07EA0C0707847D
:102A4000028B018C4FF6FF7707EA041640F6FF472A
:102A50003A404FF6FF7707EA03373A434FF6FF77DE
:102A600007EA05273A43114FB8420ED0104FB8423B
:102A70000BD0B0F1804F08D00E4FB84205D00E4FAA
:102A8000B84202D00D4FB84206D14FF6DF77394039
:102A900046F01007394305E04FF65F77394044F0C0
:102AA0001007394302830184F0BD0000002C01406F
:102AB000003401400004004000080040000C0040C9
:102AC000F0B50C461546002200210026078C4FF673
:102AD000FF6C07EA0C070784828B018C4FF6FF77A7
:102AE00007EA04264FF60C773A404FF6FF7707EADD
:102AF00003172F433A43114FB8420ED0104FB8423C
:102B00000BD0B0F1804F08D00E4FB84205D00E4F19
:102B1000B84202D00D4FB84206D14FF6FF573940A8
:102B200046F48077394305E04FF2FF57394044F4CB
:102B30008077394382830184F0BD0000002C01407E
:102B4000003401400004004000080040000C004038
:102B5000F0B50C461546002200210026078C4EF6E3
:102B6000FF7C07EA0C070784828B018C4FF6FF7706
:102B700007EA043640F6FF473A404FF6FF7707EA88
:102B800005273A434FF6FF7707EA03373A43114FD9
:102B9000B8420ED0104FB8420BD0B0F1804F08D0E1
:102BA0000E4FB84205D00E4FB84202D00D4FB8427A
:102BB00006D14DF6FF77394046F48057394305E09A
:102BC00047F6FF57394044F48057394382830184E4
:102BD000F0BD0000002C0140003401400004004022
:102BE00000080040000C004010B50121054800F02D
:102BF00067F828B10121034800F02FF8FEF766F8C6
:102C000010BD0000002C014010B50121880700F024
:102C100057F8012803D10121800700F01EF810BDEC
:102C200010B50121044800F04BF8012803D101211F
:102C3000014800F012F810BD0008004021B10288E0
:102C400042F08002028004E002884FF67F731A404F
:102C500002807047CA4302827047CA4302827047AB
:102C600021B1028842F00102028004E002884FF69E
:102C7000FE731A4002807047F0B50C4615461E469A
:102C80000021002200230189028B038C4FF6F87784
:102C9000394021434FF6FC473A4040F201173A438E
:102CA0004FF6DD773B404FF6FF7707EA06172F43D5
:102CB0003B43018102830384F0BD0146888C704749
:102CC00030B50246002000230024158A05EA0103DE
:102CD000958905EA010413B10CB1012000E0002040
:102CE00030BD000070B505460C46244885420ED024
:102CF000234885420BD0B5F1804F08D0214885424A
:102D000005D02148854202D02048854200D100E00C
:102D100000BF208850B92389A28861882846FFF720
:102D200043FEE188284600F0ABF925E0208804281E
:102D30000AD12389A28861882846FFF775FEE188B9
:102D4000284600F0A6F917E0208808280AD1238930
:102D5000A28861882846FFF7B3FEE188284600F084
:102D6000A5F909E02389A28861882846FFF7F0FECB
:102D7000E188284600F0A3F970BD0000002C014056
:102D8000003401400004004000080040000C0040F6
:102D9000002101804180012181800021C1800181C9
:102DA00070471AB183890B43838102E083898B4387
:102DB0008381704770B5002400220023058C4FF6F4
:102DC000FE7635400584028C8388048B4FF68F7520
:102DD0002C40B51E2C400D882C43751E2A400D89B1
:102DE0002A434D882A43144DA8420BD0134DA842C4
:102DF00008D0134DA84205D0124DA84202D0124D62
:102E0000A84213D14FF6F7752A404D892A434FF651
:102E1000FB752A408D882A434FF6FF652B404FF6FD
:102E2000FF552B408D892B43CD892B438380048311
:102E3000CD888586028470BD002C0140003401409D
:102E40000040014000440140004801400A46002182
:102E5000018B4FF6F773194011430183704700004F
:102E600070B5002400220023058C4FF6EF76354024
:102E70000584028C8388048B48F6FF752C404FF63E
:102E8000FF452C400D884FF6FF7606EA05252C43BA
:102E90004FF6DF752A400D8906EA05152A434D884D
:102EA00006EA05152A43154DA84202D0144DA84242
:102EB0001DD14FF67F752A404D894FF6FF7606EA01
:102EC00005152A434FF6BF752A408D8806EA051579
:102ED0002A434FF6FF352B404FF2FF752B408D896B
:102EE00006EA85052B43CD8906EA85052B438380B9
:102EF0000483CD880587028470BD0000002C01404A
:102F0000003401400A460021018B4FF2FF73194043
:102F10004FF6FF7303EA0223194301837047000051
:102F200070B5002400220023058C4FF6FF66354063
:102F30000584028C8388848B4FF68F752C404FF666
:102F4000FC752C400D882C434FF6FF552A400D8907
:102F50004FF6FF7606EA05252A434D8806EA052541
:102F60002A43154DA84202D0144DA8421DD14FF25C
:102F7000FF752A404D894FF6FF7606EA05252A435C
:102F80004FF6FF352A408D8806EA05252A434EF67E
:102F9000FF752B404DF6FF752B408D8906EA051510
:102FA0002B43CD8906EA05152B4383808483CD8886
:102FB0008587028470BD0000002C01400034014070
:102FC0000A460021818B4FF6F77319401143818324
:102FD0007047000070B5002200230024058C4EF6D7
:102FE000FF7635400584038C8488828B48F6FF7514
:102FF0002A404FF6FF452A400D884FF6FF7606EA35
:1030000005252A434DF6FF752B400D8906EA053547
:103010002B434D8806EA05352B430B4DA84202D0C1
:103020000A4DA84208D14BF6FF752C408D894FF60A
:10303000FF7606EA85152C4384808283CD88A0F82C
:103040004050038470BD0000002C0140003401405A
:103050000A460021818B4FF2FF7319404FF6FF7330
:1030600003EA0223194381837047818670470187F1
:10307000704781877047A0F840107047818470477F
:10308000028B4FF6F3731A400283028B0A430283CA
:103090007047028B4FF2FF331A400283028B4FF6C8
:1030A000FF7303EA01231A4302837047828B4FF6B2
:1030B000F3731A408283828B0A4382837047828B28
:1030C0004FF2FF331A408283828B4FF6FF7303EA7D
:1030D00001231A4382837047002202881D4B9842C5
:1030E0000ED01D4B98420BD0B0F1804F08D01B4B37
:1030F000984205D01A4B984202D01A4B984204D1FC
:103100004FF68F731A404B881A43174B984207D0DB
:10311000164B984204D04FF6FF431A40CB881A430F
:1031200002808B8883850B8803850A4B98420BD0DD
:10313000094B984208D00E4B984205D00D4B98424F
:1031400002D00D4B984201D10B7A03860123838272
:1031500070470000002C0140003401400004004092
:1031600000080040000C0040001000400014004027
:103170000040014000440140004801404FF6FF710B
:10318000818000210180C180418001727047000070
:103190007FB505460C460121C802FFF749FAADF894
:1031A0000850ADF804400020ADF80A00ADF8060064
:1031B0008DF80C0001A90D48FFF78EFF01210B4887
:1031C000FFF748FD012241210848FFF7EAFD1920D9
:1031D0008DF8000000208DF801008DF8020001201C
:1031E0008DF803006846FEF72BFA7FBD002C0140E6
:1031F00000B587B001210846FFF70AFA0121084609
:10320000FFF716FA01210420FFF712FA0020FFF75A
:10321000F7F904208DF8030003208DF80200ADF8C3
:10322000000069461948FDF76EFC4FF6FF70ADF8D7
:1032300014000020ADF81000ADF81600ADF8120033
:1032400004A94FF08040FFF747FF00231A460321EF
:103250004FF08040FFF710FD01A8FFF799FD0A200D
:10326000ADF80C0001A94007FFF73CFD01218807DC
:10327000FFF7F0FC012211469007FFF792FD0021B5
:103280004FF08040FFF7FAFE07B000BD0008014094
:1032900030B589B005460C4601210C20FFF7C8F96E
:1032A00001210846FFF7C4F901210220FFF7B0F918
:1032B00018208DF8230003208DF82200C020ADF8DF
:1032C000200008A92348FDF71EFC0320ADF82000CC
:1032D00008A92148FDF717FCADF81850ADF81440C7
:1032E0000020ADF81A00ADF8160005A8FFF746FF5C
:1032F0007020ADF804000120ADF806000020ADF804
:103300000C00ADF80A0001A91448FFF753FD01A90C
:103310001248FFF7A5FD01A91048FFF701FE01A91A
:103320000E48FFF757FE08210C48FFF78FFD0821D4
:103330000A48FFF7E7FD08210848FFF741FE08218A
:103340000648FFF785FE01210448FFF777FC09B026
:1033500030BD000000080140000C014000040040A6
:1033600000B587B001210420FFF752F9012108467A
:10337000FFF75EF901210820FFF75AF904208DF8C4
:10338000030003208DF80200C020ADF8000069465C
:103390001848FDF7B8FB4FF6FF70ADF81400002099
:1033A000ADF81000ADF81600ADF8120004A91248EF
:1033B000FFF792FE00231A4603210F48FFF75CFC3B
:1033C00001A8FFF7E5FC0A20ADF80C0001A90A48A6
:1033D000FFF788FC01210848FFF73CFC0122114659
:1033E0000548FFF7DEFC00210348FFF747FE07B062
:1033F00000BD0000000C01400008004001490968C0
:1034000001607047AC00002010B540F2255106481D
:1034100000F025F838B1044800F0DCF8C4B22146C9
:10342000014800F0DCF810BD0038014021B182896C
:1034300042F40052828104E082894DF6FF731A4003
:103440008281704702460020B1F5007F00D100BFA5
:1034500013880B400BB1012000E00020704770B5CD
:103460000246002400230025002040F66A16B142DF
:1034700000D100BFC1F3421501F01F03012606FA77
:1034800003F3012D02D19689334006E0022D02D1CB
:10349000168A334001E0968A33400C12012606FA60
:1034A00004F41688344013B10CB1012000E0002070
:1034B00070BDF0B50346002400260025002040F62C
:1034C0006A17B94200D100BF1846C1F3421401F097
:1034D0001F06012707FA06F5012C01D10C3004E084
:1034E000022C01D1103000E014301AB107682F43CC
:1034F000076002E00768AF430760F0BD2DE9F047C1
:1035000086B005460E460024A24600BFA14600270D
:10351000B08900B100BF2F462C8A4CF6FF700440E2
:10352000F08804432C82AC894EF6F3100440B08836
:1035300031890843718908430443AC81AC8A4FF652
:10354000FF400440B0890443AC8201A8FFF780F833
:103550001F48874202D1DDF810A001E0DDF80CA081
:10356000A88900F4004040B10AEBCA0000EB0A1041
:1035700031684900B0FBF1F807E00AEBCA0000EB44
:103580000A1031688900B0FBF1F86420B8FBF0F054
:1035900004012009642101FB1089A88900F400407E
:1035A00040B1322000EBC900B0FBF1F000F00700A1
:1035B000044308E0322000EB09106421B0FBF1F075
:1035C00000F00F0004432C8106B0BDE8F087000036
:1035D0000038014001468888C0F308007047C1F3F5
:1035E000080282807047000010B586B004460121B1
:1035F0000420FFF71DF801210820FFF719F8012129
:103600000846FFF715F801218803FFF711F84FF47A
:103610000070ADF8140003208DF8160018208DF806
:10362000170005A92248FDF76EFA4FF48060ADF847
:10363000140003208DF8160004208DF8170005A94A
:103640001B48FDF760FA01940020ADF80800ADF8C2
:103650000A00ADF80C00ADF810000C20ADF80E001B
:1036600001A91448FFF74AFF00214FF00060FEF760
:1036700029F84FF4A060FEF71BF825208DF8000014
:1036800003208DF801008DF8020001208DF8030061
:103690006846FDF7D5FF012240F225510548FFF7A6
:1036A00008FF01210348FFF7C1FE06B010BD00006E
:1036B000000801400038014000BFFEE70FB4054B91
:1036C00010B503A9044A029800F042F910BC5DF855
:1036D00014FB00007D54000804010020490050EA5A
:1036E000C12018BF04204A0D18BF40F0010040F26D
:1036F000FF72B2EB515F08BF40F00200012808BF23
:10370000052070472DE9F0414F1E00EBC70104462C
:10371000D1E9000115461E4637F006020DD02A46B3
:103720003346FCF7AFFE7F1E04EBC703D3E900234B
:10373000FCF701FE37F00602F1D1022F25D0042F4D
:1037400013D0062F18BFBDE8F0812A463346FCF798
:1037500099FED4E90A23FCF7EEFD2A463346FCF72E
:1037600091FED4E90823FCF7E6FD2A463346FCF730
:1037700089FED4E90623FCF7DEFD2A463346FCF732
:1037800081FED4E90423FCF7D6FD2A463346FCF734
:1037900079FED4E90223FCF7CEFD2A463346FCF736
:1037A00071FED4E90023BDE8F041FCF7C4BD000080
:1037B000024A00201107FDF7B9B8000001FDFFFF24
:1037C00002E008C8121F08C1002AFAD170477047EA
:1037D000002001E001C1121F002AFBD17047000048
:1037E0000149086070470000080100202DE9FF5FD3
:1037F000DDE90220010DDDF838B0024318D044F6AF
:103800001050A1F2FF3141430D140F98012820D030
:10381000A5EB0B00401C5FEA000A4FF00004474E86
:10382000DFF81C91A046504616D5CAF1000728E0E3
:103830000F98012443A2012808D0002100980F9B73
:10384000C0E90021C0E90243BDE8FF9F6FEA0B0118
:10385000F4E7CBF10000DEE7074612E0F80707D0F7
:103860002246334640464946FCF70CFE80468946D0
:103870002246334610461946FCF704FE04460E461F
:103880007F10002FEAD1DDE90201BAF1000F4246B4
:103890004B4602DAFCF7F6FD01E0FCF765FE044654
:1038A0000E460022284BFCF715FF03D84FF0FF30DF
:1038B000014607E00022254B20463146FCF73BFD40
:1038C000FDF79CF8102409E0002C0ADB0A220023F3
:1038D000FCF75AFF019B30321A55641E50EA010270
:1038E000F2D1641C019AC4F1110314440F9A012A05
:1038F00003D0012208430DD10AE0084304D0002080
:103900004FF0110B0F9080E7A3EB0B056D1E0DE040
:103910005B4504DD4FF0000205F1010504E003DA28
:103920004FF00002A5F10105002AECD000980F9994
:10393000C0E90231C0E9004586E7000000002440EC
:103940000000F03F300000000000F0430000E03FC6
:103950002DE9FF4F95B09B468946064600250FE2AC
:10396000252877D100242746F84A0121059400E054
:10397000044316F8013F203B01FA03F01042F7D14F
:1039800030782A2811D06FF02F033078A0F1300260
:10399000092A16D8059A44F0020402EB820203EBCE
:1039A00042021044761C0590EFE759F8042B05926B
:1039B000002A03DA504244F40054059044F0020413
:1039C000761C30782E2816D116F8010F44F0040426
:1039D0002A280DD06FF02F023078A0F13003092B88
:1039E00009D807EB870302EB4303C718761CF3E7FC
:1039F00059F8047B761C30786C280FD006DC4C28F4
:103A000017D068280DD06A2814D104E0742810D08B
:103A10007A280FD10DE044F400140AE044F4801435
:103A200001E044F440147278824202D104F580141B
:103A3000761C761C307866280BD013DC582877D09B
:103A400009DC002875D04528F6D04628F4D0472850
:103A50001AD19DE118E0632835D0642879D0652813
:103A600012D195E1702873D008DC6728F1D069285D
:103A70006FD06E280DD06F2806D1B5E073282CD0FA
:103A8000752875D0782874D05A46179990476D1CC0
:103A900075E1C4F30250022809D003280DD0D9F8EB
:103AA000001004280DD00D6009F1040967E1D9F870
:103AB0000010EA17C1E90052F6E7D9F800100D80AE
:103AC000F2E70D70F0E719F8041B8DF800100020E4
:103AD0008DF80100EA46012003E059F804AB4FF0ED
:103AE000FF3061074FF0000102D40DE008F1010141
:103AF0008846B9420FDA8045F8DB1AF80810002929
:103B0000F4D108E008F1010188468142FADB1AF895
:103B100008100029F6D105985B46A0EB080721465E
:103B20003846179A00F094FA284400EB080507E09D
:103B30004DE029E10DE01AF8010B5A46179990471C
:103B4000B8F10108F7D25B4621463846179A13E1CF
:103B500042E00A220092C4F302524FF0000A022A05
:103B600008D059F804CB032A4FEAEC710AD00DE0D3
:103B700029E02AE009F1070121F00702F2E802C179
:103B8000914609E00FFA8CFC4FEAEC71042A03D14C
:103B90004FFA8CFC4FEAEC71002907DA0A46002143
:103BA000DCF1000C61EB02012D2202E0220504D5BC
:103BB0002B228DF80420012203E0E20701D020220D
:103BC000F7E7904659E00A2102E010220DE01021AB
:103BD0004FF0000A00910BE010224FF0000A44F071
:103BE00004040827009203E008224FF0000A009224
:103BF000C4F30252022A05D059F804CB0021032A4B
:103C000008D009E009F1070121F00702F2E802C13A
:103C1000914605E01FFA8CFC042A01D10CF0FF0C40
:103C20004FF00008220728D5702806D0009B83F0AB
:103C3000100353EA0A0305D00EE040228DF8042059
:103C4000012208E05CEA010206D030228DF804204F
:103C50008DF8050002229046009B83F0080353EA8A
:103C60000A030AD15CEA010201D1620705D53022BC
:103C70008DF804204FF001087F1E582804D034A08E
:103C800003900EA802900DE036A0F9E75346604677
:103C9000009AFCF779FD84460398825C0298401EE6
:103CA000029002705CEA0100F0D1029806A9081A9D
:103CB00000F1200A600702D524F4803400E00127D7
:103CC000574502DDA7EB0A0000E0002000EB0A01E7
:103CD000009005984144401A0590E00306D45B46E5
:103CE0002146179A059800F0B3F90544002706E02D
:103CF00001A85A46C05D179990476D1C7F1C474527
:103D0000F6DBE0030CD55B462146179A059800F0D8
:103D10009FF9054404E030205A46179990476D1CDE
:103D20000099481E00900029F5DC08E002980299ED
:103D30005A460078491C0291179990476D1CBAF1B8
:103D40000001AAF1010AF1DC65E100000928010087
:103D50003031323334353637383961626364656601
:103D600000000000303132333435363738394142C3
:103D7000434445460000000000F058F90544761C15
:103D8000307800287FF4ECAD19B02846BDE8F08FFC
:103D9000620700D4062709F1070222F0070CFCE8AD
:103DA0000223E14603F000485FEA080C02D00FF25C
:103DB000702C0DE05FEA045C02D50FF2682C07E07E
:103DC0005FEAC47C02D00FF2602C01E0AFF2700C0D
:103DD0004FF0FF3823F00043CDF850C065280CD0D9
:103DE00006DC452809D046281DD047283DD13DE0B6
:103DF000662818D067287ED138E00021112F01DB1A
:103E0000112000E0781CCDE9000106A90EA8FFF7FB
:103E1000EDFCDDE90F010E9A03910021009207F1FC
:103E2000010A04914DE04FF000400097CDE90110E8
:103E300006A90EA8FFF7DAFCDDE90F0203920E9B3C
:103E400011990022DDF80CA00093049211B9791C9D
:103E500000EB010AB7EB0A0004D4C0F1FF3007F110
:103E6000010A0490AAEB0700019044E0012F00DA58
:103E700001270021112F01DD112000E03846CDE996
:103E8000000106A90EA8FFF7B1FCDDE90F010E9AAB
:103E90000391002104910092BA4621070CD40399A2
:103EA000514500DA8A46BAF1010F05DD009AAAF100
:103EB0000101515C302908D0B84202DA10F1040F38
:103EC00006DA0121CDE9011015E0AAF10101E9E7C7
:103ED000002805DC049901440491AAEB000102E0EA
:103EE000411C514500DD8A460499401A401C01904E
:103EF0004FF000400290200704D40198504501DBA8
:103F0000CDF8048000208DF84F0002980DF14F0786
:103F1000B0F1004F25D02B200E9002984FF00208F0
:103F200000280CDA404202902D200E9007E00A2172
:103F30000298FCF713FC3031029007F8011DB8F12C
:103F40000001A8F10108F2DC02980028EFD1791EE7
:103F50000E980870307800F0200040F0450007F817
:103F6000020D12A8C01B00F107081498007800B1D8
:103F7000012000EB0A01019801EBE0710598414432
:103F8000401A401E0590E00306D45B462146179A6E
:103F9000059800F05DF805441498007818B15A4669
:103FA000179990476D1CE00324D55B462146179A6C
:103FB000059800F04DF805441CE00498002807DB44
:103FC000DDE90301884203DD0098405C179901E0B8
:103FD000179930205A469047049805F10105401C76
:103FE00004900198401E019004D12E205A46179942
:103FF00090476D1CBAF10001AAF1010ADDDC05E071
:1040000017F8010B5A46179990476D1CB8F100013B
:10401000A8F10108F4DC5B462146179A0598ABE647
:104020002D0000002B000000200000002DE9F041D1
:10403000044600251E461746880404D405E0394688
:104040002020B0476D1C641EF9D52846BDE8F081DC
:104050002DE9F041044600251E469046C80301D5CF
:10406000302700E02027880404D505E04146384683
:10407000B0476D1C641EF9D52846BDE8F0810000EC
:104080002DE9F041044600BF24F00040C0F1FF409C
:10409000C00F10B10020BDE8F0814FF07E512046E6
:1040A000FCF752FB01D80948F5E709492046FCF71F
:1040B00041FB01D80748EEE72046FCF7F7FA054632
:1040C00000F00AF80746FCF719FBE4E7DB0FC93FED
:1040D000000080BFDB0FC9BF2DE9F04D904F21F0EC
:1040E000004A86B005460C46BA4530DBAAEB07000D
:1040F00028430CD08B48824501DC1CD1DDB106B0D1
:104100002846BDE8F04D4FF00102FCF70FBC864A8F
:10411000864B2846FCF7B6F907460E46844A854B7F
:1041200028462146FCF7AEF906B03A463346BDE8CC
:10413000F04DFCF700B90120FFF752FB06B000225A
:10414000BDE8F04D134610461146FCF70DBA7A480B
:10415000824542DABAF1795F0BDA2846FFF7BEFAF8
:10416000042808BFFFF724FB284606B02146BDE817
:10417000F08D2A460B461046FCF784F9834602462A
:104180006E480E460B4606217844FFF7BBFA5A46A6
:104190003346FCF777F9804669488A465A463346E3
:1041A00004217844FFF7AEFA5A463346FCF76AF921
:1041B00000223B46FCF7BFF802460B4640465146FC
:1041C000FCF7D2F92A462346FCF75CF906B02A46EA
:1041D0002346BDE8F04DFCF7AEB8284624F0004178
:1041E00000223D463B46FCF74AF94FF0FF32FCF710
:1041F0009DFB0646024653480F460B46062178446F
:10420000FFF780FA32463B46FCF73CF9CDE9000166
:104210004D4832463B4604217844FFF773FA324654
:104220003B46FCF72FF900222B46FCF784F8834627
:1042300002913046394602F0A9F9804643480D46BE
:10424000504517DCDDE900015A46029BFCF78CF96A
:1042500042462B46FCF716F942462B46FCF76BF814
:104260000122FCF763FB304A304BFCF705F9304A7A
:10427000304B4CE04FF0000A52460B464046FCF7EC
:104280005AF8CDE9031052462B4610461946FCF762
:10429000F9F832463B46FCF7F2F8DDE90332FCF769
:1042A00063F906460F46DDE900015A46029BFCF71A
:1042B0005BF983460091012230463946FCF736FB14
:1042C000194A1A4BFCF7DBF806460F460122404616
:1042D0002946FCF72BFB5A46009BFCF7D3F83246E5
:1042E0003B46FCF7C9F807460E46012250462946D0
:1042F000FCF71CFB0E4DDFF858802A464346FCF7BE
:10430000BEF83A463346FCF7BAF82A464346FCF76D
:10431000B6F8002CD8BF81F0004106B0BDE8F08DA2
:104320000000F03F0000F07F075C143326A6913CAC
:10433000182D4454FB21F93F0000E03F9C3F000052
:10434000B23F0000263F00003C3F00003333EF3F08
:10435000FB21E93F2DE9F84F04460D4621F00040CE
:1043600000917449814213DC7349884201DC08D111
:104370003CB120462946BDE8F84F4FF00102FCF75A
:10438000D5BA6E48002DCCBF6D496E49BDE8F88F97
:104390006D49814211DD6D498142D8BF4FF0FF3632
:1043A0006DDD20462946FFF799F9042808BFFFF77D
:1043B000FFF920462946BDE8F88F6549654F25F08D
:1043C0000045814233DD6449814219DD00263246D1
:1043D0004FF0804320462946FBF7ADFF80468A46D2
:1043E000012220462946FCF7A1FA00223B46FCF7B1
:1043F00043F842465346FCF7B7F804460D463EE004
:1044000001260022BA463B4620462946FBF793FF89
:1044100080460F460022534620462946FCF72CF8DA
:1044200042463B46FCF7A0F804460D4627E04B49C0
:1044300081421BDDDFF82881022600224346204608
:104440002946FCF71FF800223B46FBF774FF07469E
:104450008A460022434620462946FCF70DF83A4694
:104460005346FCF781F804460D4608E00326224631
:104470002B4600203B49FCF777F804460D462246C0
:104480002B4610461946FBF7FDFF8B468246024637
:104490000B46FBF7F7FF07460246334888460B46B4
:1044A00006217844FFF72EF952465B46FBF7EAFFF8
:1044B00082462E488B463A46434605217844FFF70C
:1044C00021F93A464346FBF7DDFF02460B46002E34
:1044D000504659460CDAFBF72EFF22462B46FBF7D7
:1044E000D1FF01B022462B46BDE8F04FFBF7C7BF16
:1044F000FBF721FF22462B46FBF7C4FF1C4A7A44F8
:1045000002EBC603D3E90023FBF7B6FF22462B4696
:10451000FBF7B2FF174A7A4402EBC603D3E9002344
:10452000FBF7ADFF009A002AB8BF81F00041BDE85B
:10453000F88F0000000010440000F07F182D445454
:10454000FB21F93FFB21F9BF0000DC3F0000203ECA
:104550000000F33F0000F03F0000E63F0080034012
:104560000000F83F0000F0BF3A3D0000F83C0000BA
:10457000963C00005E3C00002DE9F04D9446CCF1E5
:10458000000423F000464CEA0404524F46EAD47477
:104590009A46884621F00042BC4206D8454240EA8D
:1045A000050442EAD474BC4204D9BDE8F04D624629
:1045B000FBF7C1BEAAF14055A5F17F6555EA0C0491
:1045C0000BD0022404EAAA74434DDFF810E144EA58
:1045D000D87452EA000B04D00CE0BDE8F04DFFF7B0
:1045E000B9BE002C14BF012CBDE8F08D022C30D0D8
:1045F000032C32D056EA0C0B0AD0BE4220D1BA426C
:1046000009D126F0804622F080423346114617E059
:1046100000291ADB25E0DFF8C8B0FB44002C04BFFA
:10462000DBE90001BDE8F08D012C02BFDBE90001F0
:1046300081F00041BDE8F08D022C0AD0032C0CD093
:10464000BA4212D1B8F1000F0BDA23482549BDE870
:10465000F08D28462449BDE8F08D28467146BDE816
:10466000F08D1D482149BDE8F08D921B12153C2AA2
:10467000C4BF19481D490EDCBAF1000FBEBF12F1CC
:104680003C0F0020014606DB6246FBF76DFF21F080
:104690000041FFF75FFE002C08BFBDE8F08D012C44
:1046A00004BF81F00041BDE8F08D114A114B022C8E
:1046B00007D0FBF7E1FE2A46BDE8F04D0A4BFBF7B9
:1046C000DBBEFBF7D9FE2A46BDE8F04D064BFBF7F3
:1046D000D6BE00000000F07F182D4454FB2109C015
:1046E000F23B0000FB21F9BFFB210940FB21F93F10
:1046F000075C143326A6A13C70B50446002510E0E3
:104700004FF400510848FCF7DAFA1E2000F040F898
:104710004FF400510448FCF7D4FA1E2000F038F89A
:104720006D1CA542ECD370BD001001402DE9F04195
:104730000446E07800F0C006E07800F03F056078BD
:1047400000F0010098B1EF102846E91705EB517110
:10475000C910A5EBC101491C01F0FF080B48006816
:1047600020B10A48414602683846904700BF607849
:1047700000F0080030B10548406818B1B011034A94
:10478000516888470020BDE8F08100006C050020DA
:1047900000B540F21F31484302E000F004F8401E2B
:1047A0000028FAD100BD00BF00BF00BF00BF00BF9E
:1047B00000BF00BF00BF00BF00BF00BF00BF00BF01
:1047C00000BF00BF00BF00BF00BF00BF00BF00BFF1
:1047D00000BF00BF00BF00BF00BF00BF00BF00BFE1
:1047E00000BF00BF00BF00BF00BF00BF00BF00BFD1
:1047F00000BF00BF00BF00BF00BF00BF00BF00BFC1
:1048000000BF00BF00BF00BF00BF00BF00BF00BFB0
:1048100000BF00BF00BF00BF00BF00BF00BF00BFA0
:1048200000BF00BF00BF00BF00BF00BF00BF00BF90
:1048300000BF00BF00BF704700B502E0FFF7B3FF45
:10484000401E0028FAD100BD38B5044664B12020CE
:104850008DF8000028208DF8010030208DF802002E
:1048600038208DF8030004E0A32204216846FBF7FA
:104870007BFC6A46042140F69E2001F085FC01F095
:10488000FDF838BD3EB5044602208DF80000CA2070
:104890008DF80100E3208DF8020009208DF8030057
:1048A0006A460421682001F06FFCA3208DF8000007
:1048B00004F0400048B1C0208DF80100C8208DF8F8
:1048C0000200C2208DF8030006E0A3208DF801004D
:1048D0008DF802008DF8030004F4C07048B1C420C4
:1048E0008DF80400CC208DF80500C6208DF8060058
:1048F00006E0A3208DF804008DF805008DF8060071
:10490000A3208DF807008DF808008DF809006A468D
:104910000A2140F6A72001F037FC04F0030018B18B
:1049200020208DF8000002E0D8208DF800006A46B3
:10493000012140F6B62001F027FC04F0200018B158
:10494000012000F0ADF802E0002000F0A9F804F426
:10495000C07008B304F4807060B1B2208DF800001C
:104960008B208DF80100B6208DF802009B208DF879
:1049700003000BE0B0208DF8000080208DF80100CE
:10498000B4208DF8020090208DF803006A460421BF
:1049900040F6A22001F0F8FB04F0010020B3F8205B
:1049A0008DF800006A4601214FF40B6001F0ECFB2A
:1049B000FA21072000F06CFC072000F033FC0120F6
:1049C00000F053FC642000F033FD4FF4FA7000F067
:1049D00042FDC821304800F0E3FB282000F0FCFB3A
:1049E0000A2000F00CFC08E0D8208DF800006A4690
:1049F00001214FF40B6001F0C7FB04F0020018B175
:104A0000D9208DF8000002E0D8208DF800006A4619
:104A1000012140F23D7001F0B7FB04F0040018B131
:104A2000012000F069F802E0002000F065F804F0D1
:104A3000100018B10120FFF707FF02E00020FFF788
:104A400003FF44F008001549488101F017F80020E1
:104A50001249887304F0400018B10846807B801D1D
:104A6000887304F4C07020B10C48807B801D0B4912
:104A7000887304F0140020B10848807B1030074987
:104A8000887304F0030020B10448807B001D0349B3
:104A9000887300203EBD000009E3CA026C050020B7
:104AA0003EB504466CB10EA1D1E900208968CDE97C
:104AB000002002916A4609214FF4976001F064FBDF
:104AC0003EBD0AA2D2E900109268CDE90102009130
:104AD0006A4609214FF4976001F056FBF0E70000A9
:104AE000B8AAB38DB4980D355D000000B8AAAAAA83
:104AF000B088C3C5C700000038B5044664B1C02003
:104B00008DF80000C2208DF80100C4208DF802004D
:104B1000C6208DF8030004E08B2204216846FBF7D1
:104B200023FB6A46042140F6982001F02DFB00F09B
:104B3000A5FF38BD2DE9F04F9DB004460D46164641
:104B40004FF07E574FF000084FF000094FF0000A79
:104B500016A817A91CAB12AACDE9001018A91AA80B
:104B600000F064F918B101201DB0BDE8F08FBDF967
:104B70006000FBF768FD83464FF08D41FBF79DFB1E
:104B80009D494860BDF96200FBF75DFD83464FF02B
:104B90008D41FBF792FB98498860BDF96400FBF7F3
:104BA00052FD83464FF08D41FBF787FB9249C86069
:104BB000BDF96800FBF747FD83469049FBF77DFB95
:104BC0008D490861BDF96A00FBF73DFD83468B49BD
:104BD000FBF773FB88494861BDF96C00FBF733FDB7
:104BE00083468649FBF769FB83498861BDF85C0011
:104BF00000F4807000287DD01298FBF724FD8346D6
:104C00004FF09D41FBF759FB07461398FBF71BFD3F
:104C100083464FF09D41FBF750FB80461498FBF70D
:104C200012FD83464FF09D41FBF747FB81461598E7
:104C3000FBF709FD83464FF09D41FBF73EFB8246A3
:104C40006F480068FBF732FDCDE90E0149464FF091
:104C50008040FBF700FB49460290FBF7FCFA414617
:104C600004904FF04040FBF7F6FA41460290FBF704
:104C7000F2FA03900499FBF7E8FA83464FF07E516D
:104C8000FBF791FA0590FBF711FDCDE908013946D4
:104C90004FF08040FBF7DFFA41460390FBF7DBFA69
:104CA000494605904FF08040FBF7D5FA51460390F6
:104CB000FBF7D1FA04900599FBF775FA8346FBF7E9
:104CC000F5FCCDE90601DDE90823FFF755FC4FF0BF
:104CD00000524C4BCDE90A01FBF7D4FBCDE90C01A6
:104CE000DDE90E23FBF727FBCDE91001FBF706FDFD
:104CF000206000E07CE039464FF08040FBF7ABFAE3
:104D000049460D90FBF7A7FA41460F904FF04040FF
:104D1000FBF7A1FA51460D90FBF79DFA0E900F9903
:104D2000FBF741FA1090FFF7ABF937491190FBF709
:104D300092FA8346354801685846FBF734FA2860F2
:104D400033480068FBF7B2FCCDE90E0151465046EE
:104D5000FBF781FA494604904846FBF77CFA414646
:104D600003904046FBF777FA394601903846FBF747
:104D700072FA00900199FBF716FA02900399FBF77B
:104D800064FA83460499FBF760FA0590FBF78EFC02
:104D9000CDE9080151463846FBF75DFA49460490D3
:104DA0004046FBF758FA03900499FBF7FCF94FF0E3
:104DB00080410590FBF74FFA8346FBF777FCCDE97E
:104DC0000601DDE90823FFF7D7FB4FF000520D4B3A
:104DD000CDE90A01FBF756FBCDE90C01DDE90E2315
:104DE000FBF7A9FACDE91001FBF788FC306001E080
:104DF0000220B9E60020B7E60C0100206F128341C3
:104E0000C0000020DCA54C40E12E6542C40000201B
:104E1000C800002010B5C8234FF48062024940F654
:104E2000F63000F0BFFC10BD2C7500082DE9F04FE6
:104E30008DB00746884615469946DDE9166B002475
:104E4000002030806B49887B5A4605A900F076FD2A
:104E500018B1601E0DB0BDE8F08F6648807A00F092
:104E60001400002867D09DF8140000069DF8151066
:104E700040EA01409DF8161040EA01209DF8171005
:104E8000084328609DF8180000069DF8191040EAB4
:104E900001409DF81A1040EA01209DF81B100843BC
:104EA00068609DF81C0000069DF81D1040EA014056
:104EB0009DF81E1040EA01209DF81F100843A860CD
:104EC0009DF8200000069DF8211040EA01409DF861
:104ED000221040EA01209DF823100843E86004F105
:104EE0001000C4B228680014019068680014029091
:104EF000A86800140390E8680014049001984043E7
:104F0000029901FB0100039901FB0100049901FBD7
:104F1000010ABAF1706F02DBBAF1885F05DD00F0BB
:104F2000ADFD00203080401E94E7B6F9000040F44B
:104F30008070308000BF2F48807A00F0400020B39E
:104F400005A9601C085C095D40EA012000B2A8F8D0
:104F5000000005A9E01C095C05AAA01C105C41EA40
:104F6000002000B2A8F8020005A9601D095C201D00
:104F7000105C41EA002000B2A8F80400A01DC4B2F1
:104F8000B6F9000040F0080030801A48408900F46B
:104F9000C07008B305A9601C085C095D40EA0120E7
:104FA00000B2388005A9E01C095C05AAA01C105CB1
:104FB00041EA002000B2788005A9601D095C201D2F
:104FC000105C41EA002000B2B880A01DC4B2B6F95E
:104FD000000040F0700030800648807A00F0030046
:104FE00018B105A90819FFF7A1FB484600F062FABD
:104FF00000202FE76C05002030B585B0044616A2CE
:1050000007CA02AB07C3C82C03DD4FF0FF3005B061
:1050100030BDC82090FBF4F0401E85B2280A8DF800
:105020000000E8B28DF801006A46022140F2162025
:1050300001F0AAF810B14FF0FF30E8E702AA0C2106
:1050400040F6C12001F0A0F810B14FF0FF30DEE7CC
:10505000044884810020DAE7FEF2ABC4AAF1DFDF66
:10506000BBAFDFDF6C05002010B586B0044647A05B
:105070000068039046A00068029046A00068019076
:1050800045A00068009004F0030003A9085C8DF8B7
:10509000140003A8C4F3C101405C8DF8150003A8F7
:1050A000C4F38111405C8DF8160004F0030002A9DE
:1050B000085C8DF8100002A8C4F3C101405C8DF8B3
:1050C000110002A8C4F38111405C8DF8120005AAFA
:1050D000032140F2264001F057F818B14FF0FF309D
:1050E00006B010BD04AA032140F22A4001F04CF89A
:1050F00010B14FF0FF30F3E701980590009804904D
:1051000004F0040058B19DF8140040F001008DF83F
:1051100014009DF8100040F001008DF8100004F01C
:10512000200058B19DF8150040F001008DF81500E1
:105130009DF8110040F001008DF8110004F480701A
:1051400058B19DF8160040F001008DF816009DF84A
:10515000120040F001008DF8120005AA03214FF45F
:10516000886001F011F810B14FF0FF30B8E704AAE1
:10517000032140F2314001F007F810B14FF0FF3049
:10518000AEE7064804810020AAE700004CCD6C0081
:105190000CC92C0036567600264666006C050020A9
:1051A000F8B505460E464FF47A7095FBF0F000FB1B
:1051B00006F4200E8DF80000200C8DF80100200A66
:1051C0008DF80200E0B28DF803006A4604214FF426
:1051D000AE7000F0D9FFF8BD38B50446052094FB49
:1051E000F0F084B220128DF80000E0B28DF80100DA
:1051F0006A4602214FF4AD7000F0C6FF38BD38B5E5
:105200000446052094FBF0F084B220128DF80000D3
:10521000E0B28DF801006A4602214FF4AC7000F054
:10522000B3FF38BD38B504460020009004F00100FB
:1052300020B19DF8000040F03000009004F0020022
:1052400020B19DF8000040F00C00009004F0040034
:1052500020B19DF8000040F0030000906A46012153
:105260004FF4A47000F090FF38BD38B50446012C0F
:1052700001DA012402E0042C00DD0424601EC0B227
:1052800000906A46012140F24F1000F07DFF38BDCA
:105290002DE9FC4706460F4606F0070010B1B7F5AA
:1052A000C86F03DD4FF0FF30BDE8FC873846FBF7E1
:1052B000D3F981465949FBF700F88046684600F06B
:1052C000CDF99DF80000022806D0042816D0082841
:1052D00026D0102848D135E04FF08D414046FAF7EE
:1052E000BAFF8146FBF7CEF984B24D494046FAF742
:1052F000B2FF8146FBF7C6F985B238E04FF08C412A
:105300004046FAF7A8FF8146FBF7BCF984B245494D
:105310004046FAF7A0FF8146FBF7B4F985B226E0D4
:105320004FF08B414046FAF796FF8146FBF7AAF90A
:1053300084B23D494046FAF78EFF8146FBF7A2F959
:1053400085B214E04FF08A414046FAF784FF814667
:10535000FBF798F984B235494046FAF77CFF81465D
:10536000FBF790F985B202E04FF0FF309CE700BFF9
:1053700020128DF80400E0B28DF8050028128DF897
:105380000600E8B28DF8070006F00100A0B101AAFE
:1053900002214FF4EA7000F0F7FE10B14FF0FF3039
:1053A00082E70DF1060202214FF4927000F0ECFE4C
:1053B00010B14FF0FF3077E706F00200A0B101AA6C
:1053C00002214FF4EC7000F0DFFE10B14FF0FF301F
:1053D0006AE70DF1060202214FF4947000F0D4FE4A
:1053E00010B14FF0FF305FE706F00400A0B101AA52
:1053F00002214FF4EE7000F0C7FE10B14FF0FF3005
:1054000052E70DF1060202214FF4967000F0BCFE47
:1054100010B14FF0FF3047E7002045E70000484358
:10542000000040460000C045000040450000C04468
:1054300038B50446052094FBF0F085B228128DF8AB
:105440000000E8B28DF801006A4602214FF4EF70C7
:1054500000F09AFE38BD38B50446052094FBF0F004
:1054600085B228128DF80000E8B28DF801006A4676
:1054700002214FF4ED7000F087FE38BD70B5044690
:105480000D460B480068012803D1E0B2FBF7E2FAB1
:105490000CE00748006818B9E0B2FBF723FB05E011
:1054A000E0B2FBF71FFBE0B2FBF7D4FA204670BD79
:1054B0004800002000B502461046FDF79FFF00BDE2
:1054C00070B50546284600F00FF80446E81C00F0C9
:1054D0000BF844EAC00084B2A81D00F005F844EAC5
:1054E000801084B2204670BD014691F90020002A48
:1054F00001DD00201EE091F90020002A01DA0420DD
:1055000018E091F90120002A01DD012012E091F953
:105510000120002A01DA05200CE091F90220002A7E
:1055200001DD022006E091F90220002A01DA0620BE
:1055300000E007207047000000F066FE2EE001202A
:1055400017490860FCF75AF916490868FBF7AEF8E6
:10555000044622460B4614A0FEF7B0F81448006833
:10556000FBF7A4F8044622460B4612A0FEF7A6F865
:1055700013498869FBF79AF8044622460B4611A0A6
:10558000FEF79CF812498869FBF790F8044622461A
:105590000B4610A0FEF792F8FCF748F9CFE70000A1
:1055A0004800002028010020503A252E32660A00CB
:1055B000440000204F5020252E30660A00000000D5
:1055C00034050020504420252E30660A00000000DB
:1055D00050050020504920252E30660A00000000AA
:1055E00000B502461046FFF7D3F800BD70B504467B
:1055F000002624F00104184890F8240008B1002087
:1056000070BD1548807A10B94FF0FF30F8E71248A6
:10561000057C807A2040104908740846007CA0422E
:1056200002D04FF0FF3600E0002614B90A48007D92
:1056300018B1012000F062FF02E0002000F05EFFE0
:105640003CB100F01BFA20B1034805744FF0FF3065
:10565000D6E73046D4E70000D800002001461148C4
:10566000407A30B1012807D0022808D003280CD195
:1056700008E0022008700BE00420087008E0082011
:10568000087005E01020087002E04FF0FF3070470E
:1056900000BF0448C07C18B108784006000E0870AE
:1056A0000020F4E7D80000201CB5044680208DF8C7
:1056B00000003B4A1268517D394A526810786B46A7
:1056C0000122FDF73DF810B14FF0FF301CBD642002
:1056D000FFF786FF00208DF80000314A1268517DE7
:1056E0002F4A526810786B460122FDF729F810B155
:1056F0004FF0FF30EAE700212948C174FF21817291
:10570000FF2027490872FF2125484172C1724FF6D8
:10571000FF71C181FF21017481740121017380F83F
:105720002210002180F823104175017516300160A8
:1057300041608160163880F8241080F82510C184FB
:105740004FF4FA6000F0AEFB10B14FF0FF30BDE750
:10575000022000F077FA10B14FF0FF30B6E72A20B0
:1057600000F01AFC10B14FF0FF30AFE7322000F02C
:1057700055FC10B14FF0FF30A8E70020FFF736FFCF
:1057800010B14FF0FF30A1E7002000F09DFA10B1FA
:105790004FF0FF309AE7002000F08EFC002095E7E4
:1057A000D80000202DE9F04385B005460E4690460E
:1057B0009946294890F8250020B14FF0FF3005B0F8
:1057C000BDE8F08316B94FF0FF30F8E7002423E07E
:1057D000281B102801DD102000E0281B87B2321999
:1057E0003946204600F0D0FC10B14FF0FF30E6E71C
:1057F00001AA3946204600F001F910B14FF0FF3000
:10580000DDE730193A4601A9FAF7C0FC10B16FF094
:105810000100D4E7E01984B2AC42D9DB4FEA28207A
:105820008DF8000008F0FF008DF801000A4A1268A8
:10583000517F094A526810786B460222FCF780FFBC
:1058400010B14FF0FF30BAE70121034880F825106E
:10585000A0F826900020B2E7D800002038B5044612
:10586000282C02DD4FF0FF3038BDDCB9002000F0FD
:105870005DFB00208DF8000007208DF801002E4A06
:105880001268517D2C4A526810786B460222FCF750
:1058900057FF10B14FF0FF30E6E7002126480175B1
:1058A0000020E1E7012000F041FB20208DF80000FE
:1058B000012C06D100208DF80100052000F06CFBC2
:1058C00017E0052C06DC01208DF80100052000F012
:1058D00063FB0EE0142C06DC02208DF801000A2088
:1058E00000F05AFB05E003208DF80100142000F0C1
:1058F00053FB9DF80100072101EB8010C0B28DF829
:1059000001000D4A1268517D0B4A526810786B46AF
:105910000222FCF715FF10B14FF0FF30A4E7082179
:105920000548817200210173012101750020FFF7F4
:105930005DFE002098E70000D8000020F8B504467E
:105940000F4616462C4890F8240010B94FF0FF304F
:10595000F8BD2948807A10B94FF0FF30F8E7264AA1
:105960001268117B244A526810786B460222FCF7B9
:10597000DAFE10B14FF0FF30EAE79DF801009DF824
:10598000001040EA0125A54203DA00203070401ED5
:10599000DEE7194840684088B5EB600F17DD164A0E
:1059A0001268D17C144A526810786B460122FCF7C9
:1059B000BAFE10B14FF0FF30CAE79DF8000000F0CA
:1059C000100020B100F05AF86FF00100C0E7E2B219
:1059D000094B1B68597B084B5B6818783B46FCF702
:1059E000A2FE10B14FF0FF30B2E795FBF4F0401E7D
:1059F00030700020ACE70000D8000020F8B5044665
:105A00000D46164616B94FF0FF30F8BD1A48807A99
:105A100010B94FF0FF30F8E720128DF80000E0B227
:105A20008DF801009DF8010028441349496849890F
:105A3000884202DD4FF0FF30E7E70F4A1268D17E5F
:105A40000D4A526810786B460222FCF779FE10B1BD
:105A50004FF0FF30D9E7EAB2074B1B68197E064BBF
:105A60005B6818783346FCF75EFE10B14FF0FF30EC
:105A7000CBE70020C9E70000D800002008B5704837
:105A8000807A10B94FF0FF3008BD002000906C4ABA
:105A90001268517C6A4A526810786B460122FCF702
:105AA0004FFE10B14FF0FF30EEE7654A12685179B2
:105AB000634A526810786B460122FCF741FE10B130
:105AC0004FF0FF30E0E75E4A126811795C4A526895
:105AD00010786B460122FCF733FE10B14FF0FF3017
